{
  "contractName": "PublicFundRaise",
  "abi": [
    {
      "inputs": [],
      "payable": false,
      "stateMutability": "nonpayable",
      "type": "constructor"
    },
    {
      "anonymous": false,
      "inputs": [
        {
          "indexed": false,
          "internalType": "address",
          "name": "",
          "type": "address"
        },
        {
          "indexed": false,
          "internalType": "uint256",
          "name": "",
          "type": "uint256"
        }
      ],
      "name": "Fundtransaction",
      "type": "event"
    },
    {
      "payable": true,
      "stateMutability": "payable",
      "type": "fallback"
    },
    {
      "constant": true,
      "inputs": [
        {
          "internalType": "uint256",
          "name": "",
          "type": "uint256"
        }
      ],
      "name": "ProposalDetails",
      "outputs": [
        {
          "internalType": "string",
          "name": "Name",
          "type": "string"
        },
        {
          "internalType": "string",
          "name": "descofProposal",
          "type": "string"
        },
        {
          "internalType": "address",
          "name": "vendorAddress",
          "type": "address"
        },
        {
          "internalType": "uint256",
          "name": "vendorAmount",
          "type": "uint256"
        },
        {
          "internalType": "uint256",
          "name": "voteCount",
          "type": "uint256"
        }
      ],
      "payable": false,
      "stateMutability": "view",
      "type": "function"
    },
    {
      "constant": true,
      "inputs": [
        {
          "internalType": "uint256",
          "name": "",
          "type": "uint256"
        }
      ],
      "name": "arryVendor",
      "outputs": [
        {
          "internalType": "string",
          "name": "Name",
          "type": "string"
        },
        {
          "internalType": "string",
          "name": "Desc",
          "type": "string"
        },
        {
          "internalType": "address payable",
          "name": "addr",
          "type": "address"
        }
      ],
      "payable": false,
      "stateMutability": "view",
      "type": "function"
    },
    {
      "constant": false,
      "inputs": [
        {
          "internalType": "string",
          "name": "_name",
          "type": "string"
        }
      ],
      "name": "investFund",
      "outputs": [],
      "payable": true,
      "stateMutability": "payable",
      "type": "function"
    },
    {
      "constant": true,
      "inputs": [],
      "name": "getbalance",
      "outputs": [
        {
          "internalType": "uint256",
          "name": "",
          "type": "uint256"
        }
      ],
      "payable": false,
      "stateMutability": "view",
      "type": "function"
    },
    {
      "constant": true,
      "inputs": [
        {
          "internalType": "address",
          "name": "addr",
          "type": "address"
        }
      ],
      "name": "getInverstorfund",
      "outputs": [
        {
          "internalType": "uint256",
          "name": "",
          "type": "uint256"
        }
      ],
      "payable": false,
      "stateMutability": "view",
      "type": "function"
    },
    {
      "constant": false,
      "inputs": [
        {
          "internalType": "string",
          "name": "_name",
          "type": "string"
        },
        {
          "internalType": "string",
          "name": "_desc",
          "type": "string"
        },
        {
          "internalType": "address payable",
          "name": "_venAddr",
          "type": "address"
        },
        {
          "internalType": "uint256",
          "name": "_vendorAmount",
          "type": "uint256"
        }
      ],
      "name": "createProposal",
      "outputs": [],
      "payable": false,
      "stateMutability": "nonpayable",
      "type": "function"
    },
    {
      "constant": false,
      "inputs": [
        {
          "internalType": "string",
          "name": "_vendorName",
          "type": "string"
        },
        {
          "internalType": "string",
          "name": "_desc",
          "type": "string"
        },
        {
          "internalType": "address payable",
          "name": "_addr",
          "type": "address"
        }
      ],
      "name": "registerVendor",
      "outputs": [],
      "payable": false,
      "stateMutability": "nonpayable",
      "type": "function"
    },
    {
      "constant": false,
      "inputs": [
        {
          "internalType": "uint256",
          "name": "_proposalID",
          "type": "uint256"
        }
      ],
      "name": "fundstoVendor",
      "outputs": [
        {
          "internalType": "bool",
          "name": "",
          "type": "bool"
        }
      ],
      "payable": true,
      "stateMutability": "payable",
      "type": "function"
    },
    {
      "constant": false,
      "inputs": [
        {
          "internalType": "uint256",
          "name": "_value",
          "type": "uint256"
        }
      ],
      "name": "createPoll",
      "outputs": [],
      "payable": false,
      "stateMutability": "nonpayable",
      "type": "function"
    },
    {
      "constant": false,
      "inputs": [],
      "name": "destroyme",
      "outputs": [],
      "payable": false,
      "stateMutability": "nonpayable",
      "type": "function"
    }
  ],
  "bytecode": "0x608060405234801561001057600080fd5b5033600160006101000a81548173ffffffffffffffffffffffffffffffffffffffff021916908373ffffffffffffffffffffffffffffffffffffffff160217905550611b6d806100616000396000f3fe6080604052600436106100915760003560e01c806371cf827a1161005957806371cf827a146103ee5780637cdc2eb7146104a9578063a7d22b1714610632578063c89d50dc14610678578063d9c6aac8146107f757610091565b806303eff4a2146100935780631fcb93a6146101f45780634d9b3d5d1461025957806359da663c1461028457806370d6fc33146103d7575b005b34801561009f57600080fd5b506100cc600480360360208110156100b657600080fd5b8101908080359060200190929190505050610832565b6040518080602001806020018673ffffffffffffffffffffffffffffffffffffffff1673ffffffffffffffffffffffffffffffffffffffff168152602001858152602001848152602001838103835288818151815260200191508051906020019080838360005b8381101561014e578082015181840152602081019050610133565b50505050905090810190601f16801561017b5780820380516001836020036101000a031916815260200191505b50838103825287818151815260200191508051906020019080838360005b838110156101b4578082015181840152602081019050610199565b50505050905090810190601f1680156101e15780820380516001836020036101000a031916815260200191505b5097505050505050505060405180910390f35b34801561020057600080fd5b506102436004803603602081101561021757600080fd5b81019080803573ffffffffffffffffffffffffffffffffffffffff1690602001909291905050506109c5565b6040518082815260200191505060405180910390f35b34801561026557600080fd5b5061026e610a11565b6040518082815260200191505060405180910390f35b34801561029057600080fd5b506102bd600480360360208110156102a757600080fd5b8101908080359060200190929190505050610a1e565b6040518080602001806020018473ffffffffffffffffffffffffffffffffffffffff1673ffffffffffffffffffffffffffffffffffffffff168152602001838103835286818151815260200191508051906020019080838360005b83811015610333578082015181840152602081019050610318565b50505050905090810190601f1680156103605780820380516001836020036101000a031916815260200191505b50838103825285818151815260200191508051906020019080838360005b8381101561039957808201518184015260208101905061037e565b50505050905090810190601f1680156103c65780820380516001836020036101000a031916815260200191505b509550505050505060405180910390f35b3480156103e357600080fd5b506103ec610ba5565b005b6104a76004803603602081101561040457600080fd5b810190808035906020019064010000000081111561042157600080fd5b82018360208201111561043357600080fd5b8035906020019184600183028401116401000000008311171561045557600080fd5b91908080601f016020809104026020016040519081016040528093929190818152602001838380828437600081840152601f19601f820116905080830192505050505050509192919290505050610c86565b005b3480156104b557600080fd5b50610630600480360360808110156104cc57600080fd5b81019080803590602001906401000000008111156104e957600080fd5b8201836020820111156104fb57600080fd5b8035906020019184600183028401116401000000008311171561051d57600080fd5b91908080601f016020809104026020016040519081016040528093929190818152602001838380828437600081840152601f19601f8201169050808301925050505050505091929192908035906020019064010000000081111561058057600080fd5b82018360208201111561059257600080fd5b803590602001918460018302840111640100000000831117156105b457600080fd5b91908080601f016020809104026020016040519081016040528093929190818152602001838380828437600081840152601f19601f820116905080830192505050505050509192919290803573ffffffffffffffffffffffffffffffffffffffff1690602001909291908035906020019092919050505061103f565b005b61065e6004803603602081101561064857600080fd5b8101908080359060200190929190505050611168565b604051808215151515815260200191505060405180910390f35b34801561068457600080fd5b506107f56004803603606081101561069b57600080fd5b81019080803590602001906401000000008111156106b857600080fd5b8201836020820111156106ca57600080fd5b803590602001918460018302840111640100000000831117156106ec57600080fd5b91908080601f016020809104026020016040519081016040528093929190818152602001838380828437600081840152601f19601f8201169050808301925050505050505091929192908035906020019064010000000081111561074f57600080fd5b82018360208201111561076157600080fd5b8035906020019184600183028401116401000000008311171561078357600080fd5b91908080601f016020809104026020016040519081016040528093929190818152602001838380828437600081840152601f19601f820116905080830192505050505050509192919290803573ffffffffffffffffffffffffffffffffffffffff1690602001909291905050506116eb565b005b34801561080357600080fd5b506108306004803603602081101561081a57600080fd5b81019080803590602001909291905050506117f5565b005b6004818154811061083f57fe5b9060005260206000209060050201600091509050806000018054600181600116156101000203166002900480601f0160208091040260200160405190810160405280929190818152602001828054600181600116156101000203166002900480156108eb5780601f106108c0576101008083540402835291602001916108eb565b820191906000526020600020905b8154815290600101906020018083116108ce57829003601f168201915b505050505090806001018054600181600116156101000203166002900480601f0160208091040260200160405190810160405280929190818152602001828054600181600116156101000203166002900480156109895780601f1061095e57610100808354040283529160200191610989565b820191906000526020600020905b81548152906001019060200180831161096c57829003601f168201915b5050505050908060020160009054906101000a900473ffffffffffffffffffffffffffffffffffffffff16908060030154908060040154905085565b6000600260008373ffffffffffffffffffffffffffffffffffffffff1673ffffffffffffffffffffffffffffffffffffffff168152602001908152602001600020600201549050919050565b6000804790508091505090565b60038181548110610a2b57fe5b9060005260206000209060030201600091509050806000018054600181600116156101000203166002900480601f016020809104026020016040519081016040528092919081815260200182805460018160011615610100020316600290048015610ad75780601f10610aac57610100808354040283529160200191610ad7565b820191906000526020600020905b815481529060010190602001808311610aba57829003601f168201915b505050505090806001018054600181600116156101000203166002900480601f016020809104026020016040519081016040528092919081815260200182805460018160011615610100020316600290048015610b755780601f10610b4a57610100808354040283529160200191610b75565b820191906000526020600020905b815481529060010190602001808311610b5857829003601f168201915b5050505050908060020160009054906101000a900473ffffffffffffffffffffffffffffffffffffffff16905083565b3373ffffffffffffffffffffffffffffffffffffffff16600160009054906101000a900473ffffffffffffffffffffffffffffffffffffffff1673ffffffffffffffffffffffffffffffffffffffff1614610c4b576040517f08c379a0000000000000000000000000000000000000000000000000000000008152600401808060200182810382526029815260200180611b106029913960400191505060405180910390fd5b600160009054906101000a900473ffffffffffffffffffffffffffffffffffffffff1673ffffffffffffffffffffffffffffffffffffffff16ff5b3373ffffffffffffffffffffffffffffffffffffffff16600160009054906101000a900473ffffffffffffffffffffffffffffffffffffffff1673ffffffffffffffffffffffffffffffffffffffff161415610d4a576040517f08c379a000000000000000000000000000000000000000000000000000000000815260040180806020018281038252601a8152602001807f6f776e65722063616e6e6f74206265206120696e766573746f7200000000000081525060200191505060405180910390fd5b610d52611909565b81816000018190525033816020019073ffffffffffffffffffffffffffffffffffffffff16908173ffffffffffffffffffffffffffffffffffffffff16815250503481606001818152505060198160800181815250503373ffffffffffffffffffffffffffffffffffffffff16600260003373ffffffffffffffffffffffffffffffffffffffff1673ffffffffffffffffffffffffffffffffffffffff16815260200190815260200160002060010160009054906101000a900473ffffffffffffffffffffffffffffffffffffffff1673ffffffffffffffffffffffffffffffffffffffff161415610e8f576040517f08c379a0000000000000000000000000000000000000000000000000000000008152600401808060200182810382526040815260200180611ad06040913960400191505060405180910390fd5b80600260003373ffffffffffffffffffffffffffffffffffffffff1673ffffffffffffffffffffffffffffffffffffffff1681526020019081526020016000206000820151816000019080519060200190610eeb929190611950565b5060208201518160010160006101000a81548173ffffffffffffffffffffffffffffffffffffffff021916908373ffffffffffffffffffffffffffffffffffffffff16021790555060408201518160010160146101000a81548160ff021916908315150217905550606082015181600201556080820151816003015590505060003390806001815401808255809150509060018203906000526020600020016000909192909190916101000a81548173ffffffffffffffffffffffffffffffffffffffff021916908373ffffffffffffffffffffffffffffffffffffffff160217905550507fd435fe027aca210a093ee1652bbfb82b370cb02f15a0d1e44c6e342cfa823c323334604051808373ffffffffffffffffffffffffffffffffffffffff1673ffffffffffffffffffffffffffffffffffffffff1681526020018281526020019250505060405180910390a15050565b6110476119d0565b84816000018190525083816020018190525082816040019073ffffffffffffffffffffffffffffffffffffffff16908173ffffffffffffffffffffffffffffffffffffffff1681525050818160600181815250506004819080600181540180825580915050906001820390600052602060002090600502016000909192909190915060008201518160000190805190602001906110e5929190611950565b506020820151816001019080519060200190611102929190611950565b5060408201518160020160006101000a81548173ffffffffffffffffffffffffffffffffffffffff021916908373ffffffffffffffffffffffffffffffffffffffff16021790555060608201518160030155608082015181600401555050505050505050565b60006111726119d0565b6004838154811061117f57fe5b90600052602060002090600502016040518060a0016040529081600082018054600181600116156101000203166002900480601f0160208091040260200160405190810160405280929190818152602001828054600181600116156101000203166002900480156112315780601f1061120657610100808354040283529160200191611231565b820191906000526020600020905b81548152906001019060200180831161121457829003601f168201915b50505050508152602001600182018054600181600116156101000203166002900480601f0160208091040260200160405190810160405280929190818152602001828054600181600116156101000203166002900480156112d35780601f106112a8576101008083540402835291602001916112d3565b820191906000526020600020905b8154815290600101906020018083116112b657829003601f168201915b505050505081526020016002820160009054906101000a900473ffffffffffffffffffffffffffffffffffffffff1673ffffffffffffffffffffffffffffffffffffffff1673ffffffffffffffffffffffffffffffffffffffff168152602001600382015481526020016004820154815250509050600080905047826060015111156113aa576040517f08c379a000000000000000000000000000000000000000000000000000000000815260040180806020018281038252602f815260200180611a72602f913960400191505060405180910390fd5b600082604001519050600385815481106113c057fe5b906000526020600020906003020160020160009054906101000a900473ffffffffffffffffffffffffffffffffffffffff1673ffffffffffffffffffffffffffffffffffffffff168173ffffffffffffffffffffffffffffffffffffffff1614611492576040517f08c379a00000000000000000000000000000000000000000000000000000000081526004018080602001828103825260178152602001807f76656e646f722061646472657373206d69736d6174636800000000000000000081525060200191505060405180910390fd5b6000836080015190506000805490508111156114f9576040517f08c379a000000000000000000000000000000000000000000000000000000000815260040180806020018281038252602f815260200180611aa1602f913960400191505060405180910390fd5b60648102905060008080549050828161150e57fe5b04905060328110158015611523575060648111155b15611663576003878154811061153557fe5b906000526020600020906003020160020160009054906101000a900473ffffffffffffffffffffffffffffffffffffffff1673ffffffffffffffffffffffffffffffffffffffff166108fc86606001519081150290604051600060405180830381858888f193505050501580156115b0573d6000803e3d6000fd5b507fd435fe027aca210a093ee1652bbfb82b370cb02f15a0d1e44c6e342cfa823c32600388815481106115df57fe5b906000526020600020906003020160020160009054906101000a900473ffffffffffffffffffffffffffffffffffffffff168660600151604051808373ffffffffffffffffffffffffffffffffffffffff1673ffffffffffffffffffffffffffffffffffffffff1681526020018281526020019250505060405180910390a1600193505b6000151584151514156116de576040517f08c379a00000000000000000000000000000000000000000000000000000000081526004018080602001828103825260178152602001807f766f7465696e67206973206c657373207468652035302500000000000000000081525060200191505060405180910390fd5b8395505050505050919050565b6116f3611a15565b83816000018190525082816020018190525081816040019073ffffffffffffffffffffffffffffffffffffffff16908173ffffffffffffffffffffffffffffffffffffffff1681525050600381908060018154018082558091505090600182039060005260206000209060030201600090919290919091506000820151816000019080519060200190611787929190611950565b5060208201518160010190805190602001906117a4929190611950565b5060408201518160020160006101000a81548173ffffffffffffffffffffffffffffffffffffffff021916908373ffffffffffffffffffffffffffffffffffffffff16021790555050505050505050565b6000600260003373ffffffffffffffffffffffffffffffffffffffff1673ffffffffffffffffffffffffffffffffffffffff168152602001908152602001600020905081816003015414156118b2576040517f08c379a00000000000000000000000000000000000000000000000000000000081526004018080602001828103825260208152602001807f7468697320766f746520696e64657820697320416c726561647920766f74656481525060200191505060405180910390fd5b60018160010160146101000a81548160ff0219169083151502179055508181600301819055506001600483815481106118e757fe5b9060005260206000209060050201600401600082825401925050819055505050565b6040518060a0016040528060608152602001600073ffffffffffffffffffffffffffffffffffffffff16815260200160001515815260200160008152602001600081525090565b828054600181600116156101000203166002900490600052602060002090601f016020900481019282601f1061199157805160ff19168380011785556119bf565b828001600101855582156119bf579182015b828111156119be5782518255916020019190600101906119a3565b5b5090506119cc9190611a4c565b5090565b6040518060a001604052806060815260200160608152602001600073ffffffffffffffffffffffffffffffffffffffff16815260200160008152602001600081525090565b60405180606001604052806060815260200160608152602001600073ffffffffffffffffffffffffffffffffffffffff1681525090565b611a6e91905b80821115611a6a576000816000905550600101611a52565b5090565b9056fe76656e646f7220616d6f756e74206973206d6f7265207468616e2074686520636f6e74726163742062616c616e6365766f746520636f756e74206973206d6f7265207468617420746865206e756d626572206f6620696e7665737465727373616d6520696e766573746f72732063616e6e6f7420696e76657374206d6f7265207468616e206f6e636520696e207468652073616d652070726f706f73616c6f6e6c79206f776e65722063616e2063616c6c207468652064697374727563742066756e6374696f6ea265627a7a72315820fa68882d77887437c91eac0adf245276eb2825365ebe5b76400030341fc7526e64736f6c63430005100032",
  "source": "pragma solidity ^0.5.16;\n\n\n//import \"github.com/OpenZeppelin/zeppelin-solidity/contracts/math/SafeMath.sol\";\ncontract PublicFundRaise {\n    //using SafeMath for uint;\n    address payable[] internal ComunityInvestors;\n    address payable internal owner;\n\n    //struct to store the investor details\n    struct investors {\n        string name;\n        address addr;\n        bool voted;\n        uint256 money;\n        uint256 voteindex; // index of the proposal that was voted for\n    }\n    \n    \n    // add funds to vendor during proposal itself.\n\n    //to keep the track of addresses of the community investors\n    mapping(address => investors) internal investorTrack;\n\n    Vendor[] public arryVendor;\n    Proposal[] public ProposalDetails;\n\n    struct Vendor {\n        string Name;\n        string Desc;\n        address payable addr;\n    }\n\n    //to create a proposal for voting\n    struct Proposal {\n        string Name;\n        string descofProposal;\n        address vendorAddress;\n        uint256 vendorAmount;\n        uint256 voteCount;\n    }\n\n    //address payable internal  vendor;\n    event Fundtransaction(address, uint256);\n\n    //constructor to store the owner of the contract.\n    constructor() public {\n        owner = msg.sender;\n    }\n\n    modifier checkowner {\n        require(owner != msg.sender, \"owner cannot be a investor\");\n        _;\n    }\n\n    // function to raise funds from community people for projects\n    //to change the investFund just to take votes at later stage\n    function investFund(string memory _name) public payable checkowner {\n        investors memory inv;\n        inv.name = _name;\n        //inv.voted = _vote;\n        inv.addr = msg.sender;\n        inv.money = msg.value;\n        inv.voteindex = 25;\n        require(\n            investorTrack[msg.sender].addr != msg.sender,\n            \"same investors cannot invest more than once in the same proposal\"\n        );\n        investorTrack[msg.sender] = inv;\n        ComunityInvestors.push(msg.sender); //to the addresss of the investors\n        emit Fundtransaction(msg.sender, msg.value);\n    }\n\n    //get balance from the contract\n    function getbalance() public view returns (uint256) {\n        uint bal = address(this).balance;\n        return bal;\n\n    }\n\n    function getInverstorfund(address addr) public view returns (uint256) {\n        return investorTrack[addr].money;\n    }\n\n    //function to get the proposal for investment.\n    function createProposal(\n        string memory _name,\n        string memory _desc,\n        address payable _venAddr,\n        uint _vendorAmount\n    ) public {\n        Proposal memory prop;\n        prop.Name = _name;\n        prop.descofProposal = _desc;\n        prop.vendorAddress = _venAddr;\n        prop.vendorAmount = _vendorAmount;\n        ProposalDetails.push(prop);\n        //add the vendor details to the struct.\n    }\n\n    function registerVendor(\n        string memory _vendorName,\n        string memory _desc,\n        address payable _addr\n    ) public {\n        Vendor memory vendorDetails;\n        vendorDetails.Name = _vendorName;\n        vendorDetails.Desc = _desc;\n        vendorDetails.addr = _addr;\n        arryVendor.push(vendorDetails);\n    }\n\n    //function to send money to investor on approval\n    function fundstoVendor(uint256 _proposalID)\n        external\n        payable\n        returns (bool)\n    {\n        Proposal memory prop;\n        prop = ProposalDetails[_proposalID];\n        bool flag = false;\n        require(\n            prop.vendorAmount <= address(this).balance,\n            \"vendor amount is more than the contract balance\"\n        );\n\n        // Proposal memory prop;\n        // prop = ProposalDetails[_proposalID];\n        address venaddr = prop.vendorAddress;\n\n        require(\n            venaddr == arryVendor[_proposalID].addr,\n            \"vendor address mismatch\"\n        ); //to check if it is register vendor or not\n        uint256 votecount = prop.voteCount;\n        require(\n            votecount <= ComunityInvestors.length,\n            \"vote count is more that the number of investers\"\n        );\n        votecount *= 100;\n        uint256 votePer = votecount / ComunityInvestors.length;\n        if (votePer >= 50 && votePer <= 100) {\n            arryVendor[_proposalID].addr.transfer(prop.vendorAmount);\n            emit Fundtransaction(arryVendor[_proposalID].addr, prop.vendorAmount);\n            flag = true;\n        }\n            if(flag == false){\n                revert(\"voteing is less the 50%\");\n            }\n        return flag;\n    }\n\n    //creating poll by passing the amount of fund to be transafered.\n\n    // supply the proposal index.\n    function createPoll(uint256 _value) public {\n        investors storage sender = investorTrack[msg.sender];\n        require(sender.voteindex != _value, \"this vote index is Already voted\");\n        //require(!sender.voted, \"Already voted.\");\n        sender.voted = true;\n        sender.voteindex = _value;\n\n        // If `proposal` is out of the range of the array,\n        // this will throw automatically and revert all\n        // changes.\n        ProposalDetails[_value].voteCount += 1;\n    }\n    \n    \n\n    //function to vote for the idea.(call transfer functiom in case )\n\n    //self distruct the contact after successfull operation\n    function destroyme() public {\n        //owner.transfer(address(this).balance);\n        require(\n            owner == msg.sender,\n            \"only owner can call the distruct function\"\n        );\n        selfdestruct(owner);\n    }\n\n    function() external payable {}\n}\n",
  "sourcePath": "/home/madhav/Documents/CivilProject/contracts/PublicFundRaise.sol",
  "compiler": {
    "name": "solc",
    "version": "0.5.16+commit.9c3226ce.Emscripten.clang"
  },
  "schemaVersion": "3.0.23",
  "updatedAt": "2020-05-23T08:11:05.432Z",
  "networkType": "ethereum",
  "devdoc": {
    "methods": {}
  },
  "userdoc": {
    "methods": {}
  }
}